{"contracts/Gvote.sol":{"Gvote":{"abi":[{"anonymous":false,"inputs":[{"indexed":false,"internalType":"uint256","name":"sessionId","type":"uint256"},{"indexed":false,"internalType":"address","name":"owner","type":"address"}],"name":"SessionCreated","type":"event"},{"anonymous":false,"inputs":[{"indexed":true,"internalType":"address","name":"voter","type":"address"},{"indexed":false,"internalType":"uint256","name":"sessionId","type":"uint256"},{"indexed":false,"internalType":"uint256","name":"candidateIndex","type":"uint256"}],"name":"VoteCast","type":"event"},{"inputs":[{"internalType":"uint256","name":"_sessionId","type":"uint256"}],"name":"approveSession","outputs":[],"stateMutability":"nonpayable","type":"function"},{"inputs":[],"name":"createSession","outputs":[],"stateMutability":"nonpayable","type":"function"},{"inputs":[{"internalType":"uint256","name":"_sessionId","type":"uint256"}],"name":"endSession","outputs":[],"stateMutability":"nonpayable","type":"function"},{"inputs":[{"internalType":"uint256","name":"_sessionId","type":"uint256"},{"internalType":"uint256","name":"_candidateIndex","type":"uint256"}],"name":"getCandidateVotes","outputs":[{"internalType":"uint256","name":"","type":"uint256"}],"stateMutability":"view","type":"function"},{"inputs":[{"internalType":"uint256","name":"_sessionId","type":"uint256"}],"name":"getSessionApprovalStatus","outputs":[{"internalType":"bool","name":"","type":"bool"}],"stateMutability":"view","type":"function"},{"inputs":[{"internalType":"uint256","name":"_sessionId","type":"uint256"}],"name":"getSessionCandidateCount","outputs":[{"internalType":"uint256","name":"","type":"uint256"}],"stateMutability":"view","type":"function"},{"inputs":[{"internalType":"uint256","name":"_sessionId","type":"uint256"}],"name":"getSessionStatus","outputs":[{"internalType":"bool","name":"","type":"bool"},{"internalType":"bool","name":"","type":"bool"}],"stateMutability":"view","type":"function"},{"inputs":[{"internalType":"uint256","name":"_sessionId","type":"uint256"}],"name":"getSessionVoterCount","outputs":[{"internalType":"uint256","name":"","type":"uint256"}],"stateMutability":"view","type":"function"},{"inputs":[{"internalType":"uint256","name":"_sessionId","type":"uint256"},{"internalType":"address","name":"_voter","type":"address"}],"name":"getVoterChoice","outputs":[{"internalType":"uint256","name":"","type":"uint256"}],"stateMutability":"view","type":"function"},{"inputs":[{"internalType":"uint256","name":"_sessionId","type":"uint256"}],"name":"getWinner","outputs":[{"internalType":"address","name":"","type":"address"}],"stateMutability":"view","type":"function"},{"inputs":[{"internalType":"uint256","name":"_sessionId","type":"uint256"}],"name":"registerAsCandidate","outputs":[],"stateMutability":"nonpayable","type":"function"},{"inputs":[{"internalType":"uint256","name":"_sessionId","type":"uint256"}],"name":"registerAsVoter","outputs":[],"stateMutability":"nonpayable","type":"function"},{"inputs":[],"name":"sessionCount","outputs":[{"internalType":"uint256","name":"","type":"uint256"}],"stateMutability":"view","type":"function"},{"inputs":[{"internalType":"uint256","name":"","type":"uint256"}],"name":"sessions","outputs":[{"internalType":"address","name":"owner","type":"address"},{"internalType":"bool","name":"approved","type":"bool"},{"internalType":"bool","name":"start","type":"bool"},{"internalType":"bool","name":"end","type":"bool"},{"internalType":"uint256","name":"candidateCount","type":"uint256"}],"stateMutability":"view","type":"function"},{"inputs":[{"internalType":"uint256","name":"_sessionId","type":"uint256"}],"name":"startSession","outputs":[],"stateMutability":"nonpayable","type":"function"},{"inputs":[{"internalType":"uint256","name":"_sessionId","type":"uint256"},{"internalType":"uint256","name":"_candidateIndex","type":"uint256"}],"name":"vote","outputs":[],"stateMutability":"nonpayable","type":"function"}],"evm":{"bytecode":{"linkReferences":{},"object":"608060405234801561001057600080fd5b5061100e806100206000396000f3fe608060405234801561001057600080fd5b50600436106101005760003560e01c80634129b2c91161009757806383c4b7a31161006657806383c4b7a3146101fe578063887caf5f146102895780639bf86ead146102b3578063b384abef146102c657600080fd5b80634129b2c91461019457806373cd8336146101bf57806377127612146101c85780637a10a682146101db57600080fd5b80631cbf1b02116100d35780631cbf1b021461016657806326cc55831461016e5780633c98026d146101815780633d9b80ef1461018157600080fd5b80630731e3ef146101055780630a096cd91461011a5780630eac27f41461012d578063112d26a914610153575b600080fd5b610118610113366004610dba565b6102d9565b005b610118610128366004610dba565b610407565b61014061013b366004610dd3565b6104c7565b6040519081526020015b60405180910390f35b610140610161366004610e0f565b610598565b610118610640565b61011861017c366004610dba565b6106c5565b61014061018f366004610dba565b610784565b6101a76101a2366004610dba565b6107c3565b6040516001600160a01b03909116815260200161014a565b61014060015481565b6101186101d6366004610dba565b6108ed565b6101ee6101e9366004610dba565b6109ad565b604051901515815260200161014a565b61025161020c366004610dba565b600060208190529081526040902080546001909101546001600160a01b0382169160ff600160a01b8204811692600160a81b8304821692600160b01b90049091169085565b604080516001600160a01b0390961686529315156020860152911515928401929092529015156060830152608082015260a00161014a565b61029c610297366004610dba565b6109f3565b60408051921515835290151560208301520161014a565b6101186102c1366004610dba565b610a48565b6101186102d4366004610e0f565b610b3d565b600081815260208190526040902080546001600160a01b03166103175760405162461bcd60e51b815260040161030e90610e31565b60405180910390fd5b8054600160a81b900460ff1615801561033957508054600160b01b900460ff16155b6103555760405162461bcd60e51b815260040161030e90610e5e565b33600090815260038201602052604090205460ff16156103c25760405162461bcd60e51b815260206004820152602260248201527f416c7265616479207265676973746572656420617320612063616e6469646174604482015261329760f11b606482015260840161030e565b600180546000908152600283016020908152604080832080546001600160a01b0319163390811790915583526003909401905291909120805460ff1916909117905550565b60008181526020819052604090205481906001600160a01b0316331461043f5760405162461bcd60e51b815260040161030e90610ea3565b600082815260208190526040902080546001600160a01b03166104745760405162461bcd60e51b815260040161030e90610e31565b8054600160a81b900460ff1615801561049657508054600160b01b900460ff16155b6104b25760405162461bcd60e51b815260040161030e90610e5e565b805460ff60a01b1916600160a01b1790555050565b6000828152602081905260408120548390600160a01b900460ff166104fe5760405162461bcd60e51b815260040161030e90610ef3565b6000848152602081815260408083206001600160a01b0387168452600481019092529091205460ff166105735760405162461bcd60e51b815260206004820152601a60248201527f4e6f742072656769737465726564206173206120766f7465722e000000000000604482015260640161030e565b6001600160a01b03841660009081526006909101602052604090205491505092915050565b6000828152602081905260408120548390600160a01b900460ff166105cf5760405162461bcd60e51b815260040161030e90610ef3565b600084815260208190526040902060015484106106295760405162461bcd60e51b815260206004820152601860248201527724b73b30b634b21031b0b73234b230ba329034b73232bc1760411b604482015260640161030e565b600093845260050160205250506040902054919050565b60018054600090815260208190526040812080546001600160a81b0319163360ff60a01b191617815582549092909161067883610f59565b91905055507f6c5e54a4b431f9740a3fe6060098a66514c1429d75fdc49180975faaf8552779600180546106ac9190610f74565b604080519182523360208301520160405180910390a150565b60008181526020819052604090205481906001600160a01b031633146106fd5760405162461bcd60e51b815260040161030e90610ea3565b600082815260208190526040902080546001600160a01b03166107325760405162461bcd60e51b815260040161030e90610e31565b8054600160a81b900460ff16801561075357508054600160b01b900460ff16155b61076f5760405162461bcd60e51b815260040161030e90610f8b565b805460ff60b01b1916600160b01b1790555050565b600081815260208190526040812080546001600160a01b03166107b95760405162461bcd60e51b815260040161030e90610e31565b5050600154919050565b6000818152602081905260408120548290600160a01b900460ff166107fa5760405162461bcd60e51b815260040161030e90610ef3565b60008381526020819052604090208054600160a81b900460ff16801561082857508054600160b01b900460ff165b6108745760405162461bcd60e51b815260206004820152601a60248201527f53657373696f6e20686173206e6f7420656e646564207965742e000000000000604482015260640161030e565b60008060005b83600101548110156108c85760008181526005850160205260409020548210156108b65760008181526005850160205260409020549092509050815b806108c081610f59565b91505061087a565b50506000908152600290910160205260409020546001600160a01b0316915050919050565b60008181526020819052604090205481906001600160a01b031633146109255760405162461bcd60e51b815260040161030e90610ea3565b600082815260208190526040902080546001600160a01b031661095a5760405162461bcd60e51b815260040161030e90610e31565b8054600160a81b900460ff1615801561097c57508054600160b01b900460ff16155b6109985760405162461bcd60e51b815260040161030e90610e5e565b805460ff60a81b1916600160a81b1790555050565b600081815260208190526040812080546001600160a01b03166109e25760405162461bcd60e51b815260040161030e90610e31565b54600160a01b900460ff1692915050565b600081815260208190526040812080548291906001600160a01b0316610a2b5760405162461bcd60e51b815260040161030e90610e31565b5460ff600160a81b8204811695600160b01b909204169350915050565b600081815260208190526040902080546001600160a01b0316610a7d5760405162461bcd60e51b815260040161030e90610e31565b8054600160a81b900460ff16158015610a9f57508054600160b01b900460ff16155b610abb5760405162461bcd60e51b815260040161030e90610e5e565b33600090815260048201602052604090205460ff1615610b1d5760405162461bcd60e51b815260206004820152601e60248201527f416c72656164792072656769737465726564206173206120766f7465722e0000604482015260640161030e565b336000908152600490910160205260409020805460ff1916600117905550565b6000828152602081905260409020548290600160a01b900460ff16610b745760405162461bcd60e51b815260040161030e90610ef3565b600083815260208190526040902080546001600160a01b0316610ba95760405162461bcd60e51b815260040161030e90610e31565b8054600160a81b900460ff168015610bca57508054600160b01b900460ff16155b610be65760405162461bcd60e51b815260040161030e90610f8b565b33600090815260048201602052604090205460ff16610c475760405162461bcd60e51b815260206004820152601a60248201527f4e6f742072656769737465726564206173206120766f7465722e000000000000604482015260640161030e565b33600090815260038201602052604090205460ff1615610ca95760405162461bcd60e51b815260206004820152601b60248201527f43616e6e6f7420766f746520617320612063616e6469646174652e0000000000604482015260640161030e565b6001548310610cf55760405162461bcd60e51b815260206004820152601860248201527724b73b30b634b21031b0b73234b230ba329034b73232bc1760411b604482015260640161030e565b33600090815260068201602052604090205415610d455760405162461bcd60e51b815260206004820152600e60248201526d20b63932b0b23c903b37ba32b21760911b604482015260640161030e565b60008381526005820160205260408120805491610d6183610f59565b909155505033600081815260068301602090815260409182902086905581518781529081018690527fb4cfecf70861b7b150d8337780d34fb4cbc2114b5fb1fe51a5c5fca1849f7274910160405180910390a250505050565b600060208284031215610dcc57600080fd5b5035919050565b60008060408385031215610de657600080fd5b8235915060208301356001600160a01b0381168114610e0457600080fd5b809150509250929050565b60008060408385031215610e2257600080fd5b50508035926020909101359150565b60208082526013908201527224b73b30b634b21039b2b9b9b4b7b71024a21760691b604082015260600190565b60208082526025908201527f53657373696f6e2068617320616c72656164792073746172746564206f722065604082015264373232b21760d91b606082015260800190565b60208082526030908201527f4f6e6c79207468652073657373696f6e206f776e65722063616e20616363657360408201526f39903a3434b990333ab731ba34b7b71760811b606082015260800190565b60208082526030908201527f4f6e6c7920617070726f7665642073657373696f6e732063616e20616363657360408201526f39903a3434b990333ab731ba34b7b71760811b606082015260800190565b634e487b7160e01b600052601160045260246000fd5b6000600019821415610f6d57610f6d610f43565b5060010190565b600082821015610f8657610f86610f43565b500390565b6020808252602d908201527f53657373696f6e20686173206e6f74207374617274656420796574206f72206160408201526c363932b0b23c9032b73232b21760991b60608201526080019056fea26469706673582212209cb521f7651bcc1019d4eb04b8210e2ac29f6cd3ae49c5054413b82672b29b7664736f6c63430008090033","opcodes":"PUSH1 0x80 PUSH1 0x40 MSTORE CALLVALUE DUP1 ISZERO PUSH2 0x10 JUMPI PUSH1 0x0 DUP1 REVERT JUMPDEST POP PUSH2 0x100E DUP1 PUSH2 0x20 PUSH1 0x0 CODECOPY PUSH1 0x0 RETURN INVALID PUSH1 0x80 PUSH1 0x40 MSTORE CALLVALUE DUP1 ISZERO PUSH2 0x10 JUMPI PUSH1 0x0 DUP1 REVERT JUMPDEST POP PUSH1 0x4 CALLDATASIZE LT PUSH2 0x100 JUMPI PUSH1 0x0 CALLDATALOAD PUSH1 0xE0 SHR DUP1 PUSH4 0x4129B2C9 GT PUSH2 0x97 JUMPI DUP1 PUSH4 0x83C4B7A3 GT PUSH2 0x66 JUMPI DUP1 PUSH4 0x83C4B7A3 EQ PUSH2 0x1FE JUMPI DUP1 PUSH4 0x887CAF5F EQ PUSH2 0x289 JUMPI DUP1 PUSH4 0x9BF86EAD EQ PUSH2 0x2B3 JUMPI DUP1 PUSH4 0xB384ABEF EQ PUSH2 0x2C6 JUMPI PUSH1 0x0 DUP1 REVERT JUMPDEST DUP1 PUSH4 0x4129B2C9 EQ PUSH2 0x194 JUMPI DUP1 PUSH4 0x73CD8336 EQ PUSH2 0x1BF JUMPI DUP1 PUSH4 0x77127612 EQ PUSH2 0x1C8 JUMPI DUP1 PUSH4 0x7A10A682 EQ PUSH2 0x1DB JUMPI PUSH1 0x0 DUP1 REVERT JUMPDEST DUP1 PUSH4 0x1CBF1B02 GT PUSH2 0xD3 JUMPI DUP1 PUSH4 0x1CBF1B02 EQ PUSH2 0x166 JUMPI DUP1 PUSH4 0x26CC5583 EQ PUSH2 0x16E JUMPI DUP1 PUSH4 0x3C98026D EQ PUSH2 0x181 JUMPI DUP1 PUSH4 0x3D9B80EF EQ PUSH2 0x181 JUMPI PUSH1 0x0 DUP1 REVERT JUMPDEST DUP1 PUSH4 0x731E3EF EQ PUSH2 0x105 JUMPI DUP1 PUSH4 0xA096CD9 EQ PUSH2 0x11A JUMPI DUP1 PUSH4 0xEAC27F4 EQ PUSH2 0x12D JUMPI DUP1 PUSH4 0x112D26A9 EQ PUSH2 0x153 JUMPI JUMPDEST PUSH1 0x0 DUP1 REVERT JUMPDEST PUSH2 0x118 PUSH2 0x113 CALLDATASIZE PUSH1 0x4 PUSH2 0xDBA JUMP JUMPDEST PUSH2 0x2D9 JUMP JUMPDEST STOP JUMPDEST PUSH2 0x118 PUSH2 0x128 CALLDATASIZE PUSH1 0x4 PUSH2 0xDBA JUMP JUMPDEST PUSH2 0x407 JUMP JUMPDEST PUSH2 0x140 PUSH2 0x13B CALLDATASIZE PUSH1 0x4 PUSH2 0xDD3 JUMP JUMPDEST PUSH2 0x4C7 JUMP JUMPDEST PUSH1 0x40 MLOAD SWAP1 DUP2 MSTORE PUSH1 0x20 ADD JUMPDEST PUSH1 0x40 MLOAD DUP1 SWAP2 SUB SWAP1 RETURN JUMPDEST PUSH2 0x140 PUSH2 0x161 CALLDATASIZE PUSH1 0x4 PUSH2 0xE0F JUMP JUMPDEST PUSH2 0x598 JUMP JUMPDEST PUSH2 0x118 PUSH2 0x640 JUMP JUMPDEST PUSH2 0x118 PUSH2 0x17C CALLDATASIZE PUSH1 0x4 PUSH2 0xDBA JUMP JUMPDEST PUSH2 0x6C5 JUMP JUMPDEST PUSH2 0x140 PUSH2 0x18F CALLDATASIZE PUSH1 0x4 PUSH2 0xDBA JUMP JUMPDEST PUSH2 0x784 JUMP JUMPDEST PUSH2 0x1A7 PUSH2 0x1A2 CALLDATASIZE PUSH1 0x4 PUSH2 0xDBA JUMP JUMPDEST PUSH2 0x7C3 JUMP JUMPDEST PUSH1 0x40 MLOAD PUSH1 0x1 PUSH1 0x1 PUSH1 0xA0 SHL SUB SWAP1 SWAP2 AND DUP2 MSTORE PUSH1 0x20 ADD PUSH2 0x14A JUMP JUMPDEST PUSH2 0x140 PUSH1 0x1 SLOAD DUP2 JUMP JUMPDEST PUSH2 0x118 PUSH2 0x1D6 CALLDATASIZE PUSH1 0x4 PUSH2 0xDBA JUMP JUMPDEST PUSH2 0x8ED JUMP JUMPDEST PUSH2 0x1EE PUSH2 0x1E9 CALLDATASIZE PUSH1 0x4 PUSH2 0xDBA JUMP JUMPDEST PUSH2 0x9AD JUMP JUMPDEST PUSH1 0x40 MLOAD SWAP1 ISZERO ISZERO DUP2 MSTORE PUSH1 0x20 ADD PUSH2 0x14A JUMP JUMPDEST PUSH2 0x251 PUSH2 0x20C CALLDATASIZE PUSH1 0x4 PUSH2 0xDBA JUMP JUMPDEST PUSH1 0x0 PUSH1 0x20 DUP2 SWAP1 MSTORE SWAP1 DUP2 MSTORE PUSH1 0x40 SWAP1 KECCAK256 DUP1 SLOAD PUSH1 0x1 SWAP1 SWAP2 ADD SLOAD PUSH1 0x1 PUSH1 0x1 PUSH1 0xA0 SHL SUB DUP3 AND SWAP2 PUSH1 0xFF PUSH1 0x1 PUSH1 0xA0 SHL DUP3 DIV DUP2 AND SWAP3 PUSH1 0x1 PUSH1 0xA8 SHL DUP4 DIV DUP3 AND SWAP3 PUSH1 0x1 PUSH1 0xB0 SHL SWAP1 DIV SWAP1 SWAP2 AND SWAP1 DUP6 JUMP JUMPDEST PUSH1 0x40 DUP1 MLOAD PUSH1 0x1 PUSH1 0x1 PUSH1 0xA0 SHL SUB SWAP1 SWAP7 AND DUP7 MSTORE SWAP4 ISZERO ISZERO PUSH1 0x20 DUP7 ADD MSTORE SWAP2 ISZERO ISZERO SWAP3 DUP5 ADD SWAP3 SWAP1 SWAP3 MSTORE SWAP1 ISZERO ISZERO PUSH1 0x60 DUP4 ADD MSTORE PUSH1 0x80 DUP3 ADD MSTORE PUSH1 0xA0 ADD PUSH2 0x14A JUMP JUMPDEST PUSH2 0x29C PUSH2 0x297 CALLDATASIZE PUSH1 0x4 PUSH2 0xDBA JUMP JUMPDEST PUSH2 0x9F3 JUMP JUMPDEST PUSH1 0x40 DUP1 MLOAD SWAP3 ISZERO ISZERO DUP4 MSTORE SWAP1 ISZERO ISZERO PUSH1 0x20 DUP4 ADD MSTORE ADD PUSH2 0x14A JUMP JUMPDEST PUSH2 0x118 PUSH2 0x2C1 CALLDATASIZE PUSH1 0x4 PUSH2 0xDBA JUMP JUMPDEST PUSH2 0xA48 JUMP JUMPDEST PUSH2 0x118 PUSH2 0x2D4 CALLDATASIZE PUSH1 0x4 PUSH2 0xE0F JUMP JUMPDEST PUSH2 0xB3D JUMP JUMPDEST PUSH1 0x0 DUP2 DUP2 MSTORE PUSH1 0x20 DUP2 SWAP1 MSTORE PUSH1 0x40 SWAP1 KECCAK256 DUP1 SLOAD PUSH1 0x1 PUSH1 0x1 PUSH1 0xA0 SHL SUB AND PUSH2 0x317 JUMPI PUSH1 0x40 MLOAD PUSH3 0x461BCD PUSH1 0xE5 SHL DUP2 MSTORE PUSH1 0x4 ADD PUSH2 0x30E SWAP1 PUSH2 0xE31 JUMP JUMPDEST PUSH1 0x40 MLOAD DUP1 SWAP2 SUB SWAP1 REVERT JUMPDEST DUP1 SLOAD PUSH1 0x1 PUSH1 0xA8 SHL SWAP1 DIV PUSH1 0xFF AND ISZERO DUP1 ISZERO PUSH2 0x339 JUMPI POP DUP1 SLOAD PUSH1 0x1 PUSH1 0xB0 SHL SWAP1 DIV PUSH1 0xFF AND ISZERO JUMPDEST PUSH2 0x355 JUMPI PUSH1 0x40 MLOAD PUSH3 0x461BCD PUSH1 0xE5 SHL DUP2 MSTORE PUSH1 0x4 ADD PUSH2 0x30E SWAP1 PUSH2 0xE5E JUMP JUMPDEST CALLER PUSH1 0x0 SWAP1 DUP2 MSTORE PUSH1 0x3 DUP3 ADD PUSH1 0x20 MSTORE PUSH1 0x40 SWAP1 KECCAK256 SLOAD PUSH1 0xFF AND ISZERO PUSH2 0x3C2 JUMPI PUSH1 0x40 MLOAD PUSH3 0x461BCD PUSH1 0xE5 SHL DUP2 MSTORE PUSH1 0x20 PUSH1 0x4 DUP3 ADD MSTORE PUSH1 0x22 PUSH1 0x24 DUP3 ADD MSTORE PUSH32 0x416C7265616479207265676973746572656420617320612063616E6469646174 PUSH1 0x44 DUP3 ADD MSTORE PUSH2 0x3297 PUSH1 0xF1 SHL PUSH1 0x64 DUP3 ADD MSTORE PUSH1 0x84 ADD PUSH2 0x30E JUMP JUMPDEST PUSH1 0x1 DUP1 SLOAD PUSH1 0x0 SWAP1 DUP2 MSTORE PUSH1 0x2 DUP4 ADD PUSH1 0x20 SWAP1 DUP2 MSTORE PUSH1 0x40 DUP1 DUP4 KECCAK256 DUP1 SLOAD PUSH1 0x1 PUSH1 0x1 PUSH1 0xA0 SHL SUB NOT AND CALLER SWAP1 DUP2 OR SWAP1 SWAP2 SSTORE DUP4 MSTORE PUSH1 0x3 SWAP1 SWAP5 ADD SWAP1 MSTORE SWAP2 SWAP1 SWAP2 KECCAK256 DUP1 SLOAD PUSH1 0xFF NOT AND SWAP1 SWAP2 OR SWAP1 SSTORE POP JUMP JUMPDEST PUSH1 0x0 DUP2 DUP2 MSTORE PUSH1 0x20 DUP2 SWAP1 MSTORE PUSH1 0x40 SWAP1 KECCAK256 SLOAD DUP2 SWAP1 PUSH1 0x1 PUSH1 0x1 PUSH1 0xA0 SHL SUB AND CALLER EQ PUSH2 0x43F JUMPI PUSH1 0x40 MLOAD PUSH3 0x461BCD PUSH1 0xE5 SHL DUP2 MSTORE PUSH1 0x4 ADD PUSH2 0x30E SWAP1 PUSH2 0xEA3 JUMP JUMPDEST PUSH1 0x0 DUP3 DUP2 MSTORE PUSH1 0x20 DUP2 SWAP1 MSTORE PUSH1 0x40 SWAP1 KECCAK256 DUP1 SLOAD PUSH1 0x1 PUSH1 0x1 PUSH1 0xA0 SHL SUB AND PUSH2 0x474 JUMPI PUSH1 0x40 MLOAD PUSH3 0x461BCD PUSH1 0xE5 SHL DUP2 MSTORE PUSH1 0x4 ADD PUSH2 0x30E SWAP1 PUSH2 0xE31 JUMP JUMPDEST DUP1 SLOAD PUSH1 0x1 PUSH1 0xA8 SHL SWAP1 DIV PUSH1 0xFF AND ISZERO DUP1 ISZERO PUSH2 0x496 JUMPI POP DUP1 SLOAD PUSH1 0x1 PUSH1 0xB0 SHL SWAP1 DIV PUSH1 0xFF AND ISZERO JUMPDEST PUSH2 0x4B2 JUMPI PUSH1 0x40 MLOAD PUSH3 0x461BCD PUSH1 0xE5 SHL DUP2 MSTORE PUSH1 0x4 ADD PUSH2 0x30E SWAP1 PUSH2 0xE5E JUMP JUMPDEST DUP1 SLOAD PUSH1 0xFF PUSH1 0xA0 SHL NOT AND PUSH1 0x1 PUSH1 0xA0 SHL OR SWAP1 SSTORE POP POP JUMP JUMPDEST PUSH1 0x0 DUP3 DUP2 MSTORE PUSH1 0x20 DUP2 SWAP1 MSTORE PUSH1 0x40 DUP2 KECCAK256 SLOAD DUP4 SWAP1 PUSH1 0x1 PUSH1 0xA0 SHL SWAP1 DIV PUSH1 0xFF AND PUSH2 0x4FE JUMPI PUSH1 0x40 MLOAD PUSH3 0x461BCD PUSH1 0xE5 SHL DUP2 MSTORE PUSH1 0x4 ADD PUSH2 0x30E SWAP1 PUSH2 0xEF3 JUMP JUMPDEST PUSH1 0x0 DUP5 DUP2 MSTORE PUSH1 0x20 DUP2 DUP2 MSTORE PUSH1 0x40 DUP1 DUP4 KECCAK256 PUSH1 0x1 PUSH1 0x1 PUSH1 0xA0 SHL SUB DUP8 AND DUP5 MSTORE PUSH1 0x4 DUP2 ADD SWAP1 SWAP3 MSTORE SWAP1 SWAP2 KECCAK256 SLOAD PUSH1 0xFF AND PUSH2 0x573 JUMPI PUSH1 0x40 MLOAD PUSH3 0x461BCD PUSH1 0xE5 SHL DUP2 MSTORE PUSH1 0x20 PUSH1 0x4 DUP3 ADD MSTORE PUSH1 0x1A PUSH1 0x24 DUP3 ADD MSTORE PUSH32 0x4E6F742072656769737465726564206173206120766F7465722E000000000000 PUSH1 0x44 DUP3 ADD MSTORE PUSH1 0x64 ADD PUSH2 0x30E JUMP JUMPDEST PUSH1 0x1 PUSH1 0x1 PUSH1 0xA0 SHL SUB DUP5 AND PUSH1 0x0 SWAP1 DUP2 MSTORE PUSH1 0x6 SWAP1 SWAP2 ADD PUSH1 0x20 MSTORE PUSH1 0x40 SWAP1 KECCAK256 SLOAD SWAP2 POP POP SWAP3 SWAP2 POP POP JUMP JUMPDEST PUSH1 0x0 DUP3 DUP2 MSTORE PUSH1 0x20 DUP2 SWAP1 MSTORE PUSH1 0x40 DUP2 KECCAK256 SLOAD DUP4 SWAP1 PUSH1 0x1 PUSH1 0xA0 SHL SWAP1 DIV PUSH1 0xFF AND PUSH2 0x5CF JUMPI PUSH1 0x40 MLOAD PUSH3 0x461BCD PUSH1 0xE5 SHL DUP2 MSTORE PUSH1 0x4 ADD PUSH2 0x30E SWAP1 PUSH2 0xEF3 JUMP JUMPDEST PUSH1 0x0 DUP5 DUP2 MSTORE PUSH1 0x20 DUP2 SWAP1 MSTORE PUSH1 0x40 SWAP1 KECCAK256 PUSH1 0x1 SLOAD DUP5 LT PUSH2 0x629 JUMPI PUSH1 0x40 MLOAD PUSH3 0x461BCD PUSH1 0xE5 SHL DUP2 MSTORE PUSH1 0x20 PUSH1 0x4 DUP3 ADD MSTORE PUSH1 0x18 PUSH1 0x24 DUP3 ADD MSTORE PUSH24 0x24B73B30B634B21031B0B73234B230BA329034B73232BC17 PUSH1 0x41 SHL PUSH1 0x44 DUP3 ADD MSTORE PUSH1 0x64 ADD PUSH2 0x30E JUMP JUMPDEST PUSH1 0x0 SWAP4 DUP5 MSTORE PUSH1 0x5 ADD PUSH1 0x20 MSTORE POP POP PUSH1 0x40 SWAP1 KECCAK256 SLOAD SWAP2 SWAP1 POP JUMP JUMPDEST PUSH1 0x1 DUP1 SLOAD PUSH1 0x0 SWAP1 DUP2 MSTORE PUSH1 0x20 DUP2 SWAP1 MSTORE PUSH1 0x40 DUP2 KECCAK256 DUP1 SLOAD PUSH1 0x1 PUSH1 0x1 PUSH1 0xA8 SHL SUB NOT AND CALLER PUSH1 0xFF PUSH1 0xA0 SHL NOT AND OR DUP2 SSTORE DUP3 SLOAD SWAP1 SWAP3 SWAP1 SWAP2 PUSH2 0x678 DUP4 PUSH2 0xF59 JUMP JUMPDEST SWAP2 SWAP1 POP SSTORE POP PUSH32 0x6C5E54A4B431F9740A3FE6060098A66514C1429D75FDC49180975FAAF8552779 PUSH1 0x1 DUP1 SLOAD PUSH2 0x6AC SWAP2 SWAP1 PUSH2 0xF74 JUMP JUMPDEST PUSH1 0x40 DUP1 MLOAD SWAP2 DUP3 MSTORE CALLER PUSH1 0x20 DUP4 ADD MSTORE ADD PUSH1 0x40 MLOAD DUP1 SWAP2 SUB SWAP1 LOG1 POP JUMP JUMPDEST PUSH1 0x0 DUP2 DUP2 MSTORE PUSH1 0x20 DUP2 SWAP1 MSTORE PUSH1 0x40 SWAP1 KECCAK256 SLOAD DUP2 SWAP1 PUSH1 0x1 PUSH1 0x1 PUSH1 0xA0 SHL SUB AND CALLER EQ PUSH2 0x6FD JUMPI PUSH1 0x40 MLOAD PUSH3 0x461BCD PUSH1 0xE5 SHL DUP2 MSTORE PUSH1 0x4 ADD PUSH2 0x30E SWAP1 PUSH2 0xEA3 JUMP JUMPDEST PUSH1 0x0 DUP3 DUP2 MSTORE PUSH1 0x20 DUP2 SWAP1 MSTORE PUSH1 0x40 SWAP1 KECCAK256 DUP1 SLOAD PUSH1 0x1 PUSH1 0x1 PUSH1 0xA0 SHL SUB AND PUSH2 0x732 JUMPI PUSH1 0x40 MLOAD PUSH3 0x461BCD PUSH1 0xE5 SHL DUP2 MSTORE PUSH1 0x4 ADD PUSH2 0x30E SWAP1 PUSH2 0xE31 JUMP JUMPDEST DUP1 SLOAD PUSH1 0x1 PUSH1 0xA8 SHL SWAP1 DIV PUSH1 0xFF AND DUP1 ISZERO PUSH2 0x753 JUMPI POP DUP1 SLOAD PUSH1 0x1 PUSH1 0xB0 SHL SWAP1 DIV PUSH1 0xFF AND ISZERO JUMPDEST PUSH2 0x76F JUMPI PUSH1 0x40 MLOAD PUSH3 0x461BCD PUSH1 0xE5 SHL DUP2 MSTORE PUSH1 0x4 ADD PUSH2 0x30E SWAP1 PUSH2 0xF8B JUMP JUMPDEST DUP1 SLOAD PUSH1 0xFF PUSH1 0xB0 SHL NOT AND PUSH1 0x1 PUSH1 0xB0 SHL OR SWAP1 SSTORE POP POP JUMP JUMPDEST PUSH1 0x0 DUP2 DUP2 MSTORE PUSH1 0x20 DUP2 SWAP1 MSTORE PUSH1 0x40 DUP2 KECCAK256 DUP1 SLOAD PUSH1 0x1 PUSH1 0x1 PUSH1 0xA0 SHL SUB AND PUSH2 0x7B9 JUMPI PUSH1 0x40 MLOAD PUSH3 0x461BCD PUSH1 0xE5 SHL DUP2 MSTORE PUSH1 0x4 ADD PUSH2 0x30E SWAP1 PUSH2 0xE31 JUMP JUMPDEST POP POP PUSH1 0x1 SLOAD SWAP2 SWAP1 POP JUMP JUMPDEST PUSH1 0x0 DUP2 DUP2 MSTORE PUSH1 0x20 DUP2 SWAP1 MSTORE PUSH1 0x40 DUP2 KECCAK256 SLOAD DUP3 SWAP1 PUSH1 0x1 PUSH1 0xA0 SHL SWAP1 DIV PUSH1 0xFF AND PUSH2 0x7FA JUMPI PUSH1 0x40 MLOAD PUSH3 0x461BCD PUSH1 0xE5 SHL DUP2 MSTORE PUSH1 0x4 ADD PUSH2 0x30E SWAP1 PUSH2 0xEF3 JUMP JUMPDEST PUSH1 0x0 DUP4 DUP2 MSTORE PUSH1 0x20 DUP2 SWAP1 MSTORE PUSH1 0x40 SWAP1 KECCAK256 DUP1 SLOAD PUSH1 0x1 PUSH1 0xA8 SHL SWAP1 DIV PUSH1 0xFF AND DUP1 ISZERO PUSH2 0x828 JUMPI POP DUP1 SLOAD PUSH1 0x1 PUSH1 0xB0 SHL SWAP1 DIV PUSH1 0xFF AND JUMPDEST PUSH2 0x874 JUMPI PUSH1 0x40 MLOAD PUSH3 0x461BCD PUSH1 0xE5 SHL DUP2 MSTORE PUSH1 0x20 PUSH1 0x4 DUP3 ADD MSTORE PUSH1 0x1A PUSH1 0x24 DUP3 ADD MSTORE PUSH32 0x53657373696F6E20686173206E6F7420656E646564207965742E000000000000 PUSH1 0x44 DUP3 ADD MSTORE PUSH1 0x64 ADD PUSH2 0x30E JUMP JUMPDEST PUSH1 0x0 DUP1 PUSH1 0x0 JUMPDEST DUP4 PUSH1 0x1 ADD SLOAD DUP2 LT ISZERO PUSH2 0x8C8 JUMPI PUSH1 0x0 DUP2 DUP2 MSTORE PUSH1 0x5 DUP6 ADD PUSH1 0x20 MSTORE PUSH1 0x40 SWAP1 KECCAK256 SLOAD DUP3 LT ISZERO PUSH2 0x8B6 JUMPI PUSH1 0x0 DUP2 DUP2 MSTORE PUSH1 0x5 DUP6 ADD PUSH1 0x20 MSTORE PUSH1 0x40 SWAP1 KECCAK256 SLOAD SWAP1 SWAP3 POP SWAP1 POP DUP2 JUMPDEST DUP1 PUSH2 0x8C0 DUP2 PUSH2 0xF59 JUMP JUMPDEST SWAP2 POP POP PUSH2 0x87A JUMP JUMPDEST POP POP PUSH1 0x0 SWAP1 DUP2 MSTORE PUSH1 0x2 SWAP1 SWAP2 ADD PUSH1 0x20 MSTORE PUSH1 0x40 SWAP1 KECCAK256 SLOAD PUSH1 0x1 PUSH1 0x1 PUSH1 0xA0 SHL SUB AND SWAP2 POP POP SWAP2 SWAP1 POP JUMP JUMPDEST PUSH1 0x0 DUP2 DUP2 MSTORE PUSH1 0x20 DUP2 SWAP1 MSTORE PUSH1 0x40 SWAP1 KECCAK256 SLOAD DUP2 SWAP1 PUSH1 0x1 PUSH1 0x1 PUSH1 0xA0 SHL SUB AND CALLER EQ PUSH2 0x925 JUMPI PUSH1 0x40 MLOAD PUSH3 0x461BCD PUSH1 0xE5 SHL DUP2 MSTORE PUSH1 0x4 ADD PUSH2 0x30E SWAP1 PUSH2 0xEA3 JUMP JUMPDEST PUSH1 0x0 DUP3 DUP2 MSTORE PUSH1 0x20 DUP2 SWAP1 MSTORE PUSH1 0x40 SWAP1 KECCAK256 DUP1 SLOAD PUSH1 0x1 PUSH1 0x1 PUSH1 0xA0 SHL SUB AND PUSH2 0x95A JUMPI PUSH1 0x40 MLOAD PUSH3 0x461BCD PUSH1 0xE5 SHL DUP2 MSTORE PUSH1 0x4 ADD PUSH2 0x30E SWAP1 PUSH2 0xE31 JUMP JUMPDEST DUP1 SLOAD PUSH1 0x1 PUSH1 0xA8 SHL SWAP1 DIV PUSH1 0xFF AND ISZERO DUP1 ISZERO PUSH2 0x97C JUMPI POP DUP1 SLOAD PUSH1 0x1 PUSH1 0xB0 SHL SWAP1 DIV PUSH1 0xFF AND ISZERO JUMPDEST PUSH2 0x998 JUMPI PUSH1 0x40 MLOAD PUSH3 0x461BCD PUSH1 0xE5 SHL DUP2 MSTORE PUSH1 0x4 ADD PUSH2 0x30E SWAP1 PUSH2 0xE5E JUMP JUMPDEST DUP1 SLOAD PUSH1 0xFF PUSH1 0xA8 SHL NOT AND PUSH1 0x1 PUSH1 0xA8 SHL OR SWAP1 SSTORE POP POP JUMP JUMPDEST PUSH1 0x0 DUP2 DUP2 MSTORE PUSH1 0x20 DUP2 SWAP1 MSTORE PUSH1 0x40 DUP2 KECCAK256 DUP1 SLOAD PUSH1 0x1 PUSH1 0x1 PUSH1 0xA0 SHL SUB AND PUSH2 0x9E2 JUMPI PUSH1 0x40 MLOAD PUSH3 0x461BCD PUSH1 0xE5 SHL DUP2 MSTORE PUSH1 0x4 ADD PUSH2 0x30E SWAP1 PUSH2 0xE31 JUMP JUMPDEST SLOAD PUSH1 0x1 PUSH1 0xA0 SHL SWAP1 DIV PUSH1 0xFF AND SWAP3 SWAP2 POP POP JUMP JUMPDEST PUSH1 0x0 DUP2 DUP2 MSTORE PUSH1 0x20 DUP2 SWAP1 MSTORE PUSH1 0x40 DUP2 KECCAK256 DUP1 SLOAD DUP3 SWAP2 SWAP1 PUSH1 0x1 PUSH1 0x1 PUSH1 0xA0 SHL SUB AND PUSH2 0xA2B JUMPI PUSH1 0x40 MLOAD PUSH3 0x461BCD PUSH1 0xE5 SHL DUP2 MSTORE PUSH1 0x4 ADD PUSH2 0x30E SWAP1 PUSH2 0xE31 JUMP JUMPDEST SLOAD PUSH1 0xFF PUSH1 0x1 PUSH1 0xA8 SHL DUP3 DIV DUP2 AND SWAP6 PUSH1 0x1 PUSH1 0xB0 SHL SWAP1 SWAP3 DIV AND SWAP4 POP SWAP2 POP POP JUMP JUMPDEST PUSH1 0x0 DUP2 DUP2 MSTORE PUSH1 0x20 DUP2 SWAP1 MSTORE PUSH1 0x40 SWAP1 KECCAK256 DUP1 SLOAD PUSH1 0x1 PUSH1 0x1 PUSH1 0xA0 SHL SUB AND PUSH2 0xA7D JUMPI PUSH1 0x40 MLOAD PUSH3 0x461BCD PUSH1 0xE5 SHL DUP2 MSTORE PUSH1 0x4 ADD PUSH2 0x30E SWAP1 PUSH2 0xE31 JUMP JUMPDEST DUP1 SLOAD PUSH1 0x1 PUSH1 0xA8 SHL SWAP1 DIV PUSH1 0xFF AND ISZERO DUP1 ISZERO PUSH2 0xA9F JUMPI POP DUP1 SLOAD PUSH1 0x1 PUSH1 0xB0 SHL SWAP1 DIV PUSH1 0xFF AND ISZERO JUMPDEST PUSH2 0xABB JUMPI PUSH1 0x40 MLOAD PUSH3 0x461BCD PUSH1 0xE5 SHL DUP2 MSTORE PUSH1 0x4 ADD PUSH2 0x30E SWAP1 PUSH2 0xE5E JUMP JUMPDEST CALLER PUSH1 0x0 SWAP1 DUP2 MSTORE PUSH1 0x4 DUP3 ADD PUSH1 0x20 MSTORE PUSH1 0x40 SWAP1 KECCAK256 SLOAD PUSH1 0xFF AND ISZERO PUSH2 0xB1D JUMPI PUSH1 0x40 MLOAD PUSH3 0x461BCD PUSH1 0xE5 SHL DUP2 MSTORE PUSH1 0x20 PUSH1 0x4 DUP3 ADD MSTORE PUSH1 0x1E PUSH1 0x24 DUP3 ADD MSTORE PUSH32 0x416C72656164792072656769737465726564206173206120766F7465722E0000 PUSH1 0x44 DUP3 ADD MSTORE PUSH1 0x64 ADD PUSH2 0x30E JUMP JUMPDEST CALLER PUSH1 0x0 SWAP1 DUP2 MSTORE PUSH1 0x4 SWAP1 SWAP2 ADD PUSH1 0x20 MSTORE PUSH1 0x40 SWAP1 KECCAK256 DUP1 SLOAD PUSH1 0xFF NOT AND PUSH1 0x1 OR SWAP1 SSTORE POP JUMP JUMPDEST PUSH1 0x0 DUP3 DUP2 MSTORE PUSH1 0x20 DUP2 SWAP1 MSTORE PUSH1 0x40 SWAP1 KECCAK256 SLOAD DUP3 SWAP1 PUSH1 0x1 PUSH1 0xA0 SHL SWAP1 DIV PUSH1 0xFF AND PUSH2 0xB74 JUMPI PUSH1 0x40 MLOAD PUSH3 0x461BCD PUSH1 0xE5 SHL DUP2 MSTORE PUSH1 0x4 ADD PUSH2 0x30E SWAP1 PUSH2 0xEF3 JUMP JUMPDEST PUSH1 0x0 DUP4 DUP2 MSTORE PUSH1 0x20 DUP2 SWAP1 MSTORE PUSH1 0x40 SWAP1 KECCAK256 DUP1 SLOAD PUSH1 0x1 PUSH1 0x1 PUSH1 0xA0 SHL SUB AND PUSH2 0xBA9 JUMPI PUSH1 0x40 MLOAD PUSH3 0x461BCD PUSH1 0xE5 SHL DUP2 MSTORE PUSH1 0x4 ADD PUSH2 0x30E SWAP1 PUSH2 0xE31 JUMP JUMPDEST DUP1 SLOAD PUSH1 0x1 PUSH1 0xA8 SHL SWAP1 DIV PUSH1 0xFF AND DUP1 ISZERO PUSH2 0xBCA JUMPI POP DUP1 SLOAD PUSH1 0x1 PUSH1 0xB0 SHL SWAP1 DIV PUSH1 0xFF AND ISZERO JUMPDEST PUSH2 0xBE6 JUMPI PUSH1 0x40 MLOAD PUSH3 0x461BCD PUSH1 0xE5 SHL DUP2 MSTORE PUSH1 0x4 ADD PUSH2 0x30E SWAP1 PUSH2 0xF8B JUMP JUMPDEST CALLER PUSH1 0x0 SWAP1 DUP2 MSTORE PUSH1 0x4 DUP3 ADD PUSH1 0x20 MSTORE PUSH1 0x40 SWAP1 KECCAK256 SLOAD PUSH1 0xFF AND PUSH2 0xC47 JUMPI PUSH1 0x40 MLOAD PUSH3 0x461BCD PUSH1 0xE5 SHL DUP2 MSTORE PUSH1 0x20 PUSH1 0x4 DUP3 ADD MSTORE PUSH1 0x1A PUSH1 0x24 DUP3 ADD MSTORE PUSH32 0x4E6F742072656769737465726564206173206120766F7465722E000000000000 PUSH1 0x44 DUP3 ADD MSTORE PUSH1 0x64 ADD PUSH2 0x30E JUMP JUMPDEST CALLER PUSH1 0x0 SWAP1 DUP2 MSTORE PUSH1 0x3 DUP3 ADD PUSH1 0x20 MSTORE PUSH1 0x40 SWAP1 KECCAK256 SLOAD PUSH1 0xFF AND ISZERO PUSH2 0xCA9 JUMPI PUSH1 0x40 MLOAD PUSH3 0x461BCD PUSH1 0xE5 SHL DUP2 MSTORE PUSH1 0x20 PUSH1 0x4 DUP3 ADD MSTORE PUSH1 0x1B PUSH1 0x24 DUP3 ADD MSTORE PUSH32 0x43616E6E6F7420766F746520617320612063616E6469646174652E0000000000 PUSH1 0x44 DUP3 ADD MSTORE PUSH1 0x64 ADD PUSH2 0x30E JUMP JUMPDEST PUSH1 0x1 SLOAD DUP4 LT PUSH2 0xCF5 JUMPI PUSH1 0x40 MLOAD PUSH3 0x461BCD PUSH1 0xE5 SHL DUP2 MSTORE PUSH1 0x20 PUSH1 0x4 DUP3 ADD MSTORE PUSH1 0x18 PUSH1 0x24 DUP3 ADD MSTORE PUSH24 0x24B73B30B634B21031B0B73234B230BA329034B73232BC17 PUSH1 0x41 SHL PUSH1 0x44 DUP3 ADD MSTORE PUSH1 0x64 ADD PUSH2 0x30E JUMP JUMPDEST CALLER PUSH1 0x0 SWAP1 DUP2 MSTORE PUSH1 0x6 DUP3 ADD PUSH1 0x20 MSTORE PUSH1 0x40 SWAP1 KECCAK256 SLOAD ISZERO PUSH2 0xD45 JUMPI PUSH1 0x40 MLOAD PUSH3 0x461BCD PUSH1 0xE5 SHL DUP2 MSTORE PUSH1 0x20 PUSH1 0x4 DUP3 ADD MSTORE PUSH1 0xE PUSH1 0x24 DUP3 ADD MSTORE PUSH14 0x20B63932B0B23C903B37BA32B217 PUSH1 0x91 SHL PUSH1 0x44 DUP3 ADD MSTORE PUSH1 0x64 ADD PUSH2 0x30E JUMP JUMPDEST PUSH1 0x0 DUP4 DUP2 MSTORE PUSH1 0x5 DUP3 ADD PUSH1 0x20 MSTORE PUSH1 0x40 DUP2 KECCAK256 DUP1 SLOAD SWAP2 PUSH2 0xD61 DUP4 PUSH2 0xF59 JUMP JUMPDEST SWAP1 SWAP2 SSTORE POP POP CALLER PUSH1 0x0 DUP2 DUP2 MSTORE PUSH1 0x6 DUP4 ADD PUSH1 0x20 SWAP1 DUP2 MSTORE PUSH1 0x40 SWAP2 DUP3 SWAP1 KECCAK256 DUP7 SWAP1 SSTORE DUP2 MLOAD DUP8 DUP2 MSTORE SWAP1 DUP2 ADD DUP7 SWAP1 MSTORE PUSH32 0xB4CFECF70861B7B150D8337780D34FB4CBC2114B5FB1FE51A5C5FCA1849F7274 SWAP2 ADD PUSH1 0x40 MLOAD DUP1 SWAP2 SUB SWAP1 LOG2 POP POP POP POP JUMP JUMPDEST PUSH1 0x0 PUSH1 0x20 DUP3 DUP5 SUB SLT ISZERO PUSH2 0xDCC JUMPI PUSH1 0x0 DUP1 REVERT JUMPDEST POP CALLDATALOAD SWAP2 SWAP1 POP JUMP JUMPDEST PUSH1 0x0 DUP1 PUSH1 0x40 DUP4 DUP6 SUB SLT ISZERO PUSH2 0xDE6 JUMPI PUSH1 0x0 DUP1 REVERT JUMPDEST DUP3 CALLDATALOAD SWAP2 POP PUSH1 0x20 DUP4 ADD CALLDATALOAD PUSH1 0x1 PUSH1 0x1 PUSH1 0xA0 SHL SUB DUP2 AND DUP2 EQ PUSH2 0xE04 JUMPI PUSH1 0x0 DUP1 REVERT JUMPDEST DUP1 SWAP2 POP POP SWAP3 POP SWAP3 SWAP1 POP JUMP JUMPDEST PUSH1 0x0 DUP1 PUSH1 0x40 DUP4 DUP6 SUB SLT ISZERO PUSH2 0xE22 JUMPI PUSH1 0x0 DUP1 REVERT JUMPDEST POP POP DUP1 CALLDATALOAD SWAP3 PUSH1 0x20 SWAP1 SWAP2 ADD CALLDATALOAD SWAP2 POP JUMP JUMPDEST PUSH1 0x20 DUP1 DUP3 MSTORE PUSH1 0x13 SWAP1 DUP3 ADD MSTORE PUSH19 0x24B73B30B634B21039B2B9B9B4B7B71024A217 PUSH1 0x69 SHL PUSH1 0x40 DUP3 ADD MSTORE PUSH1 0x60 ADD SWAP1 JUMP JUMPDEST PUSH1 0x20 DUP1 DUP3 MSTORE PUSH1 0x25 SWAP1 DUP3 ADD MSTORE PUSH32 0x53657373696F6E2068617320616C72656164792073746172746564206F722065 PUSH1 0x40 DUP3 ADD MSTORE PUSH5 0x373232B217 PUSH1 0xD9 SHL PUSH1 0x60 DUP3 ADD MSTORE PUSH1 0x80 ADD SWAP1 JUMP JUMPDEST PUSH1 0x20 DUP1 DUP3 MSTORE PUSH1 0x30 SWAP1 DUP3 ADD MSTORE PUSH32 0x4F6E6C79207468652073657373696F6E206F776E65722063616E206163636573 PUSH1 0x40 DUP3 ADD MSTORE PUSH16 0x39903A3434B990333AB731BA34B7B717 PUSH1 0x81 SHL PUSH1 0x60 DUP3 ADD MSTORE PUSH1 0x80 ADD SWAP1 JUMP JUMPDEST PUSH1 0x20 DUP1 DUP3 MSTORE PUSH1 0x30 SWAP1 DUP3 ADD MSTORE PUSH32 0x4F6E6C7920617070726F7665642073657373696F6E732063616E206163636573 PUSH1 0x40 DUP3 ADD MSTORE PUSH16 0x39903A3434B990333AB731BA34B7B717 PUSH1 0x81 SHL PUSH1 0x60 DUP3 ADD MSTORE PUSH1 0x80 ADD SWAP1 JUMP JUMPDEST PUSH4 0x4E487B71 PUSH1 0xE0 SHL PUSH1 0x0 MSTORE PUSH1 0x11 PUSH1 0x4 MSTORE PUSH1 0x24 PUSH1 0x0 REVERT JUMPDEST PUSH1 0x0 PUSH1 0x0 NOT DUP3 EQ ISZERO PUSH2 0xF6D JUMPI PUSH2 0xF6D PUSH2 0xF43 JUMP JUMPDEST POP PUSH1 0x1 ADD SWAP1 JUMP JUMPDEST PUSH1 0x0 DUP3 DUP3 LT ISZERO PUSH2 0xF86 JUMPI PUSH2 0xF86 PUSH2 0xF43 JUMP JUMPDEST POP SUB SWAP1 JUMP JUMPDEST PUSH1 0x20 DUP1 DUP3 MSTORE PUSH1 0x2D SWAP1 DUP3 ADD MSTORE PUSH32 0x53657373696F6E20686173206E6F74207374617274656420796574206F722061 PUSH1 0x40 DUP3 ADD MSTORE PUSH13 0x363932B0B23C9032B73232B217 PUSH1 0x99 SHL PUSH1 0x60 DUP3 ADD MSTORE PUSH1 0x80 ADD SWAP1 JUMP INVALID LOG2 PUSH5 0x6970667358 0x22 SLT KECCAK256 SWAP13 0xB5 0x21 0xF7 PUSH6 0x1BCC1019D4EB DIV 0xB8 0x21 0xE 0x2A 0xC2 SWAP16 PUSH13 0xD3AE49C5054413B82672B29B76 PUSH5 0x736F6C6343 STOP ADDMOD MULMOD STOP CALLER "},"methodIdentifiers":{"approveSession(uint256)":"0a096cd9","createSession()":"1cbf1b02","endSession(uint256)":"26cc5583","getCandidateVotes(uint256,uint256)":"112d26a9","getSessionApprovalStatus(uint256)":"7a10a682","getSessionCandidateCount(uint256)":"3c98026d","getSessionStatus(uint256)":"887caf5f","getSessionVoterCount(uint256)":"3d9b80ef","getVoterChoice(uint256,address)":"0eac27f4","getWinner(uint256)":"4129b2c9","registerAsCandidate(uint256)":"0731e3ef","registerAsVoter(uint256)":"9bf86ead","sessionCount()":"73cd8336","sessions(uint256)":"83c4b7a3","startSession(uint256)":"77127612","vote(uint256,uint256)":"b384abef"}}}}}