{
  "_format": "hh-sol-artifact-1",
  "contractName": "VotingSystem",
  "sourceName": "contracts/VotingSystem.sol",
  "abi": [
    {
      "inputs": [],
      "stateMutability": "nonpayable",
      "type": "constructor"
    },
    {
      "anonymous": false,
      "inputs": [
        {
          "indexed": false,
          "internalType": "uint256",
          "name": "ballotId",
          "type": "uint256"
        },
        {
          "indexed": false,
          "internalType": "string",
          "name": "name",
          "type": "string"
        }
      ],
      "name": "BallotCreated",
      "type": "event"
    },
    {
      "anonymous": false,
      "inputs": [
        {
          "indexed": false,
          "internalType": "uint256",
          "name": "sessionId",
          "type": "uint256"
        },
        {
          "indexed": false,
          "internalType": "address",
          "name": "owner",
          "type": "address"
        }
      ],
      "name": "SessionCreated",
      "type": "event"
    },
    {
      "anonymous": false,
      "inputs": [
        {
          "indexed": true,
          "internalType": "address",
          "name": "voter",
          "type": "address"
        },
        {
          "indexed": false,
          "internalType": "uint256",
          "name": "candidateIndex",
          "type": "uint256"
        }
      ],
      "name": "VoteCast",
      "type": "event"
    },
    {
      "inputs": [
        {
          "internalType": "string",
          "name": "_name",
          "type": "string"
        },
        {
          "internalType": "string",
          "name": "_party",
          "type": "string"
        }
      ],
      "name": "addCandidate",
      "outputs": [],
      "stateMutability": "nonpayable",
      "type": "function"
    },
    {
      "inputs": [],
      "name": "admin",
      "outputs": [
        {
          "internalType": "address",
          "name": "",
          "type": "address"
        }
      ],
      "stateMutability": "view",
      "type": "function"
    },
    {
      "inputs": [],
      "name": "ballotCount",
      "outputs": [
        {
          "internalType": "uint256",
          "name": "",
          "type": "uint256"
        }
      ],
      "stateMutability": "view",
      "type": "function"
    },
    {
      "inputs": [
        {
          "internalType": "uint256",
          "name": "",
          "type": "uint256"
        }
      ],
      "name": "ballots",
      "outputs": [
        {
          "internalType": "uint256",
          "name": "id",
          "type": "uint256"
        },
        {
          "internalType": "string",
          "name": "name",
          "type": "string"
        },
        {
          "internalType": "uint256",
          "name": "startTime",
          "type": "uint256"
        },
        {
          "internalType": "uint256",
          "name": "endTime",
          "type": "uint256"
        }
      ],
      "stateMutability": "view",
      "type": "function"
    },
    {
      "inputs": [],
      "name": "candidateCount",
      "outputs": [
        {
          "internalType": "uint256",
          "name": "",
          "type": "uint256"
        }
      ],
      "stateMutability": "view",
      "type": "function"
    },
    {
      "inputs": [
        {
          "internalType": "uint256",
          "name": "",
          "type": "uint256"
        }
      ],
      "name": "candidates",
      "outputs": [
        {
          "internalType": "string",
          "name": "name",
          "type": "string"
        },
        {
          "internalType": "string",
          "name": "party",
          "type": "string"
        },
        {
          "internalType": "uint256",
          "name": "voteCount",
          "type": "uint256"
        }
      ],
      "stateMutability": "view",
      "type": "function"
    },
    {
      "inputs": [
        {
          "internalType": "string",
          "name": "_name",
          "type": "string"
        },
        {
          "internalType": "uint256[]",
          "name": "_candidateIds",
          "type": "uint256[]"
        },
        {
          "internalType": "uint256",
          "name": "_startTime",
          "type": "uint256"
        },
        {
          "internalType": "uint256",
          "name": "_endTime",
          "type": "uint256"
        }
      ],
      "name": "createBallot",
      "outputs": [],
      "stateMutability": "nonpayable",
      "type": "function"
    },
    {
      "inputs": [],
      "name": "end",
      "outputs": [
        {
          "internalType": "bool",
          "name": "",
          "type": "bool"
        }
      ],
      "stateMutability": "view",
      "type": "function"
    },
    {
      "inputs": [],
      "name": "endElection",
      "outputs": [],
      "stateMutability": "nonpayable",
      "type": "function"
    },
    {
      "inputs": [
        {
          "internalType": "uint256",
          "name": "_candidateIndex",
          "type": "uint256"
        }
      ],
      "name": "getCandidate",
      "outputs": [
        {
          "internalType": "string",
          "name": "",
          "type": "string"
        },
        {
          "internalType": "string",
          "name": "",
          "type": "string"
        },
        {
          "internalType": "uint256",
          "name": "",
          "type": "uint256"
        }
      ],
      "stateMutability": "view",
      "type": "function"
    },
    {
      "inputs": [],
      "name": "getCandidateCount",
      "outputs": [
        {
          "internalType": "uint256",
          "name": "",
          "type": "uint256"
        }
      ],
      "stateMutability": "view",
      "type": "function"
    },
    {
      "inputs": [],
      "name": "getVoterCount",
      "outputs": [
        {
          "internalType": "uint256",
          "name": "",
          "type": "uint256"
        }
      ],
      "stateMutability": "view",
      "type": "function"
    },
    {
      "inputs": [
        {
          "internalType": "address",
          "name": "_voter",
          "type": "address"
        }
      ],
      "name": "getVoterStatus",
      "outputs": [
        {
          "internalType": "bool",
          "name": "",
          "type": "bool"
        }
      ],
      "stateMutability": "view",
      "type": "function"
    },
    {
      "inputs": [],
      "name": "getWinningCandidate",
      "outputs": [
        {
          "internalType": "string",
          "name": "",
          "type": "string"
        },
        {
          "internalType": "string",
          "name": "",
          "type": "string"
        },
        {
          "internalType": "uint256",
          "name": "",
          "type": "uint256"
        }
      ],
      "stateMutability": "view",
      "type": "function"
    },
    {
      "inputs": [
        {
          "internalType": "address",
          "name": "",
          "type": "address"
        }
      ],
      "name": "hasVoted",
      "outputs": [
        {
          "internalType": "bool",
          "name": "",
          "type": "bool"
        }
      ],
      "stateMutability": "view",
      "type": "function"
    },
    {
      "inputs": [
        {
          "internalType": "address",
          "name": "",
          "type": "address"
        }
      ],
      "name": "isRegistered",
      "outputs": [
        {
          "internalType": "bool",
          "name": "",
          "type": "bool"
        }
      ],
      "stateMutability": "view",
      "type": "function"
    },
    {
      "inputs": [],
      "name": "registerVoter",
      "outputs": [],
      "stateMutability": "nonpayable",
      "type": "function"
    },
    {
      "inputs": [],
      "name": "start",
      "outputs": [
        {
          "internalType": "bool",
          "name": "",
          "type": "bool"
        }
      ],
      "stateMutability": "view",
      "type": "function"
    },
    {
      "inputs": [],
      "name": "startElection",
      "outputs": [],
      "stateMutability": "nonpayable",
      "type": "function"
    },
    {
      "inputs": [
        {
          "internalType": "uint256",
          "name": "_candidateIndex",
          "type": "uint256"
        }
      ],
      "name": "vote",
      "outputs": [],
      "stateMutability": "nonpayable",
      "type": "function"
    },
    {
      "inputs": [
        {
          "internalType": "uint256",
          "name": "",
          "type": "uint256"
        },
        {
          "internalType": "address",
          "name": "",
          "type": "address"
        }
      ],
      "name": "votedForCandidate",
      "outputs": [
        {
          "internalType": "bool",
          "name": "",
          "type": "bool"
        }
      ],
      "stateMutability": "view",
      "type": "function"
    },
    {
      "inputs": [],
      "name": "voterCount",
      "outputs": [
        {
          "internalType": "uint256",
          "name": "",
          "type": "uint256"
        }
      ],
      "stateMutability": "view",
      "type": "function"
    }
  ],
  "bytecode": "0x608060405234801561001057600080fd5b50600080546001600160a01b03191633178155600181905560028190556003805461ffff191690556004556116e78061004a6000396000f3fe608060405234801561001057600080fd5b50600436106101425760003560e01c806362d73eb8116100b8578063c3c5a5471161007c578063c3c5a54714610290578063e68c299c146102b3578063ecb617d9146102e1578063efbe1c1c146102e9578063f851a440146102fb578063f927cc291461032657600080fd5b806362d73eb81461023d57806378e3ef2014610245578063a9a981a314610271578063be9a65551461027a578063c00300321461028757600080fd5b80633477ee2e1161010a5780633477ee2e146101c157806335b8e820146101e357806342169e48146101f65780634d707a78146101ff57806359f78468146102125780635c632b381461021a57600080fd5b80630121b93f1461014757806309eef43e1461015c57806311174a291461019457806326541b56146101a657806330a56347146101b9575b600080fd5b61015a6101553660046111fb565b61032e565b005b61017f61016a366004611230565b60066020526000908152604090205460ff1681565b60405190151581526020015b60405180910390f35b6002545b60405190815260200161018b565b61015a6101b4366004611309565b610619565b600154610198565b6101d46101cf3660046111fb565b61070d565b60405161018b939291906113ba565b6101d46101f13660046111fb565b61083f565b61019860025481565b61015a61020d3660046113f0565b6109f0565b61015a610bf6565b61022d6102283660046111fb565b610c7b565b60405161018b94939291906114c8565b61015a610d2c565b61017f610253366004611230565b6001600160a01b031660009081526007602052604090205460ff1690565b61019860015481565b60035461017f9060ff1681565b61019860045481565b61017f61029e366004611230565b60076020526000908152604090205460ff1681565b61017f6102c13660046114f4565b600860209081526000928352604080842090915290825290205460ff1681565b61015a610e02565b60035461017f90610100900460ff1681565b60005461030e906001600160a01b031681565b6040516001600160a01b03909116815260200161018b565b6101d4610f13565b6000546001600160a01b031633148061035657503360009081526007602052604090205460ff165b6103cd5760405162461bcd60e51b815260206004820152603d60248201527f4f6e6c79207468652061646d696e206f72207265676973746572656420766f7460448201527f6572732063616e2061636365737320746869732066756e6374696f6e2e00000060648201526084015b60405180910390fd5b60035460ff166103ef5760405162461bcd60e51b81526004016103c490611520565b600354610100900460ff16156104175760405162461bcd60e51b81526004016103c490611557565b3360009081526007602052604090205460ff166104765760405162461bcd60e51b815260206004820152601a60248201527f4e6f742072656769737465726564206173206120766f7465722e00000000000060448201526064016103c4565b3360009081526006602052604090205460ff16156104c75760405162461bcd60e51b815260206004820152600e60248201526d20b63932b0b23c903b37ba32b21760911b60448201526064016103c4565b60015481106105135760405162461bcd60e51b815260206004820152601860248201527724b73b30b634b21031b0b73234b230ba329034b73232bc1760411b60448201526064016103c4565b600081815260086020908152604080832033845290915290205460ff16156105875760405162461bcd60e51b815260206004820152602160248201527f416c726561647920766f74656420666f7220746869732063616e6469646174656044820152601760f91b60648201526084016103c4565b60008181526005602052604081206002018054916105a4836115a4565b90915550503360008181526006602090815260408083208054600160ff1991821681179092558685526008845282852086865284529382902080549094161790925590518381527fa36cc2bebb74db33e9f88110a07ef56e1b31b24b4c4f51b54b1664266e29f45b910160405180910390a250565b6000546001600160a01b031633146106435760405162461bcd60e51b81526004016103c4906115bf565b60035460ff16156106665760405162461bcd60e51b81526004016103c490611607565b600354610100900460ff161561068e5760405162461bcd60e51b81526004016103c490611557565b60408051606081018252838152602080820184905260008284018190526001548152600582529290922081518051929391926106cd9284920190611128565b5060208281015180516106e69260018501920190611128565b506040919091015160029091015560018054906000610704836115a4565b91905055505050565b6005602052600090815260409020805481906107289061163e565b80601f01602080910402602001604051908101604052809291908181526020018280546107549061163e565b80156107a15780601f10610776576101008083540402835291602001916107a1565b820191906000526020600020905b81548152906001019060200180831161078457829003601f168201915b5050505050908060010180546107b69061163e565b80601f01602080910402602001604051908101604052809291908181526020018280546107e29061163e565b801561082f5780601f106108045761010080835404028352916020019161082f565b820191906000526020600020905b81548152906001019060200180831161081257829003601f168201915b5050505050908060020154905083565b606080600060015484106108905760405162461bcd60e51b815260206004820152601860248201527724b73b30b634b21031b0b73234b230ba329034b73232bc1760411b60448201526064016103c4565b6000848152600560205260408082208151606081019092528054829082906108b79061163e565b80601f01602080910402602001604051908101604052809291908181526020018280546108e39061163e565b80156109305780601f1061090557610100808354040283529160200191610930565b820191906000526020600020905b81548152906001019060200180831161091357829003601f168201915b505050505081526020016001820180546109499061163e565b80601f01602080910402602001604051908101604052809291908181526020018280546109759061163e565b80156109c25780601f10610997576101008083540402835291602001916109c2565b820191906000526020600020905b8154815290600101906020018083116109a557829003601f168201915b5050509183525050600291909101546020918201528151908201516040909201519097919650945092505050565b6000546001600160a01b03163314610a1a5760405162461bcd60e51b81526004016103c4906115bf565b60035460ff1615610a3d5760405162461bcd60e51b81526004016103c490611607565b600354610100900460ff1615610a655760405162461bcd60e51b81526004016103c490611557565b6000835111610ac75760405162461bcd60e51b815260206004820152602860248201527f4174206c65617374206f6e652063616e646964617465206d75737420626520696044820152673731b63ab232b21760c11b60648201526084016103c4565b808210610b0f5760405162461bcd60e51b815260206004820152601660248201527524b73b30b634b2103130b63637ba103832b934b7b21760511b60448201526064016103c4565b6040805160a081018252600454808252602080830188815283850188905260608401879052608084018690526000928352600a8252939091208251815592518051929392610b639260018501920190611128565b5060408201518051610b7f9160028401916020909101906111ac565b50606082015160038201556080909101516004918201558054906000610ba4836115a4565b91905055507f0db6f49479669554c6eefe11608543e654d387ff0d23b6b36f365fd261f6a4e06001600454610bd99190611679565b85604051610be8929190611690565b60405180910390a150505050565b6000546001600160a01b03163314610c205760405162461bcd60e51b81526004016103c4906115bf565b60035460ff16610c425760405162461bcd60e51b81526004016103c490611520565b600354610100900460ff1615610c6a5760405162461bcd60e51b81526004016103c490611557565b6003805461ff001916610100179055565b600a6020526000908152604090208054600182018054919291610c9d9061163e565b80601f0160208091040260200160405190810160405280929190818152602001828054610cc99061163e565b8015610d165780601f10610ceb57610100808354040283529160200191610d16565b820191906000526020600020905b815481529060010190602001808311610cf957829003601f168201915b5050505050908060030154908060040154905084565b6000546001600160a01b03163314610d565760405162461bcd60e51b81526004016103c4906115bf565b600060015411610da85760405162461bcd60e51b815260206004820152601860248201527f4e6f2063616e64696461746573206164646564207965742e000000000000000060448201526064016103c4565b60035460ff1615610dcb5760405162461bcd60e51b81526004016103c490611607565b600354610100900460ff1615610df35760405162461bcd60e51b81526004016103c490611557565b6003805460ff19166001179055565b60035460ff16610e245760405162461bcd60e51b81526004016103c490611520565b600354610100900460ff1615610e4c5760405162461bcd60e51b81526004016103c490611557565b3360009081526007602052604090205460ff1615610ea25760405162461bcd60e51b815260206004820152601360248201527220b63932b0b23c903932b3b4b9ba32b932b21760691b60448201526064016103c4565b336000818152600760205260408120805460ff1916600190811790915560098054918201815582527f6e1540171b6c0c960b71a7020d9f60077f6af931a8bbf590da0223dacf75c7af0180546001600160a01b0319169092179091556002805491610f0c836115a4565b9190505550565b6060806000600360019054906101000a900460ff16610f745760405162461bcd60e51b815260206004820152601b60248201527f456c656374696f6e20686173206e6f7420656e646564207965742e000000000060448201526064016103c4565b600080805b600154811015610fc657600081815260056020526040902060020154831015610fb45760008181526005602052604090206002015492509050805b80610fbe816115a4565b915050610f79565b50600081815260056020526040808220815160608101909252805482908290610fee9061163e565b80601f016020809104026020016040519081016040528092919081815260200182805461101a9061163e565b80156110675780601f1061103c57610100808354040283529160200191611067565b820191906000526020600020905b81548152906001019060200180831161104a57829003601f168201915b505050505081526020016001820180546110809061163e565b80601f01602080910402602001604051908101604052809291908181526020018280546110ac9061163e565b80156110f95780601f106110ce576101008083540402835291602001916110f9565b820191906000526020600020905b8154815290600101906020018083116110dc57829003601f168201915b505050918352505060029190910154602091820152815190820151604090920151909891975095509350505050565b8280546111349061163e565b90600052602060002090601f016020900481019282611156576000855561119c565b82601f1061116f57805160ff191683800117855561119c565b8280016001018555821561119c579182015b8281111561119c578251825591602001919060010190611181565b506111a89291506111e6565b5090565b82805482825590600052602060002090810192821561119c579160200282018281111561119c578251825591602001919060010190611181565b5b808211156111a857600081556001016111e7565b60006020828403121561120d57600080fd5b5035919050565b80356001600160a01b038116811461122b57600080fd5b919050565b60006020828403121561124257600080fd5b61124b82611214565b9392505050565b634e487b7160e01b600052604160045260246000fd5b604051601f8201601f1916810167ffffffffffffffff8111828210171561129157611291611252565b604052919050565b600082601f8301126112aa57600080fd5b813567ffffffffffffffff8111156112c4576112c4611252565b6112d7601f8201601f1916602001611268565b8181528460208386010111156112ec57600080fd5b816020850160208301376000918101602001919091529392505050565b6000806040838503121561131c57600080fd5b823567ffffffffffffffff8082111561133457600080fd5b61134086838701611299565b9350602085013591508082111561135657600080fd5b5061136385828601611299565b9150509250929050565b6000815180845260005b8181101561139357602081850181015186830182015201611377565b818111156113a5576000602083870101525b50601f01601f19169290920160200192915050565b6060815260006113cd606083018661136d565b82810360208401526113df818661136d565b915050826040830152949350505050565b6000806000806080858703121561140657600080fd5b843567ffffffffffffffff8082111561141e57600080fd5b61142a88838901611299565b955060209150818701358181111561144157600080fd5b8701601f8101891361145257600080fd5b80358281111561146457611464611252565b8060051b9250611475848401611268565b818152928201840192848101908b85111561148f57600080fd5b928501925b848410156114ad57833582529285019290850190611494565b989b989a505050506040870135966060013595945050505050565b8481526080602082015260006114e1608083018661136d565b6040830194909452506060015292915050565b6000806040838503121561150757600080fd5b8235915061151760208401611214565b90509250929050565b6020808252601d908201527f456c656374696f6e20686173206e6f742073746172746564207965742e000000604082015260600190565b6020808252601b908201527f456c656374696f6e2068617320616c726561647920656e6465642e0000000000604082015260600190565b634e487b7160e01b600052601160045260246000fd5b60006000198214156115b8576115b861158e565b5060010190565b60208082526028908201527f4f6e6c79207468652061646d696e2063616e20616363657373207468697320666040820152673ab731ba34b7b71760c11b606082015260800190565b6020808252601d908201527f456c656374696f6e2068617320616c726561647920737461727465642e000000604082015260600190565b600181811c9082168061165257607f821691505b6020821081141561167357634e487b7160e01b600052602260045260246000fd5b50919050565b60008282101561168b5761168b61158e565b500390565b8281526040602082015260006116a9604083018461136d565b94935050505056fea2646970667358221220d8cf9847d18ece1122681201a9c3af9e40705bf07138562c2bf3b039612c84e064736f6c63430008090033",
  "linkReferences": {},
  "deployedLinkReferences": {}
}