{
  "_format": "hh-sol-artifact-1",
  "contractName": "Gvote",
  "sourceName": "contracts/Gvote.sol",
  "abi": [
    {
      "anonymous": false,
      "inputs": [
        {
          "indexed": false,
          "internalType": "uint256",
          "name": "sessionId",
          "type": "uint256"
        },
        {
          "indexed": false,
          "internalType": "address",
          "name": "owner",
          "type": "address"
        }
      ],
      "name": "SessionCreated",
      "type": "event"
    },
    {
      "anonymous": false,
      "inputs": [
        {
          "indexed": true,
          "internalType": "address",
          "name": "voter",
          "type": "address"
        },
        {
          "indexed": false,
          "internalType": "uint256",
          "name": "sessionId",
          "type": "uint256"
        },
        {
          "indexed": false,
          "internalType": "uint256",
          "name": "candidateIndex",
          "type": "uint256"
        }
      ],
      "name": "VoteCast",
      "type": "event"
    },
    {
      "inputs": [
        {
          "internalType": "uint256",
          "name": "_sessionId",
          "type": "uint256"
        }
      ],
      "name": "approveSession",
      "outputs": [],
      "stateMutability": "nonpayable",
      "type": "function"
    },
    {
      "inputs": [],
      "name": "createSession",
      "outputs": [],
      "stateMutability": "nonpayable",
      "type": "function"
    },
    {
      "inputs": [
        {
          "internalType": "uint256",
          "name": "_sessionId",
          "type": "uint256"
        }
      ],
      "name": "endSession",
      "outputs": [],
      "stateMutability": "nonpayable",
      "type": "function"
    },
    {
      "inputs": [
        {
          "internalType": "uint256",
          "name": "_sessionId",
          "type": "uint256"
        },
        {
          "internalType": "uint256",
          "name": "_candidateIndex",
          "type": "uint256"
        }
      ],
      "name": "getCandidateVotes",
      "outputs": [
        {
          "internalType": "uint256",
          "name": "",
          "type": "uint256"
        }
      ],
      "stateMutability": "view",
      "type": "function"
    },
    {
      "inputs": [
        {
          "internalType": "uint256",
          "name": "_sessionId",
          "type": "uint256"
        }
      ],
      "name": "getSessionApprovalStatus",
      "outputs": [
        {
          "internalType": "bool",
          "name": "",
          "type": "bool"
        }
      ],
      "stateMutability": "view",
      "type": "function"
    },
    {
      "inputs": [
        {
          "internalType": "uint256",
          "name": "_sessionId",
          "type": "uint256"
        }
      ],
      "name": "getSessionCandidateCount",
      "outputs": [
        {
          "internalType": "uint256",
          "name": "",
          "type": "uint256"
        }
      ],
      "stateMutability": "view",
      "type": "function"
    },
    {
      "inputs": [
        {
          "internalType": "uint256",
          "name": "_sessionId",
          "type": "uint256"
        }
      ],
      "name": "getSessionStatus",
      "outputs": [
        {
          "internalType": "bool",
          "name": "",
          "type": "bool"
        },
        {
          "internalType": "bool",
          "name": "",
          "type": "bool"
        }
      ],
      "stateMutability": "view",
      "type": "function"
    },
    {
      "inputs": [
        {
          "internalType": "uint256",
          "name": "_sessionId",
          "type": "uint256"
        }
      ],
      "name": "getSessionVoterCount",
      "outputs": [
        {
          "internalType": "uint256",
          "name": "",
          "type": "uint256"
        }
      ],
      "stateMutability": "view",
      "type": "function"
    },
    {
      "inputs": [
        {
          "internalType": "uint256",
          "name": "_sessionId",
          "type": "uint256"
        },
        {
          "internalType": "address",
          "name": "_voter",
          "type": "address"
        }
      ],
      "name": "getVoterChoice",
      "outputs": [
        {
          "internalType": "uint256",
          "name": "",
          "type": "uint256"
        }
      ],
      "stateMutability": "view",
      "type": "function"
    },
    {
      "inputs": [
        {
          "internalType": "uint256",
          "name": "_sessionId",
          "type": "uint256"
        }
      ],
      "name": "getWinner",
      "outputs": [
        {
          "internalType": "address",
          "name": "",
          "type": "address"
        }
      ],
      "stateMutability": "view",
      "type": "function"
    },
    {
      "inputs": [
        {
          "internalType": "uint256",
          "name": "_sessionId",
          "type": "uint256"
        }
      ],
      "name": "registerAsCandidate",
      "outputs": [],
      "stateMutability": "nonpayable",
      "type": "function"
    },
    {
      "inputs": [
        {
          "internalType": "uint256",
          "name": "_sessionId",
          "type": "uint256"
        }
      ],
      "name": "registerAsVoter",
      "outputs": [],
      "stateMutability": "nonpayable",
      "type": "function"
    },
    {
      "inputs": [],
      "name": "sessionCount",
      "outputs": [
        {
          "internalType": "uint256",
          "name": "",
          "type": "uint256"
        }
      ],
      "stateMutability": "view",
      "type": "function"
    },
    {
      "inputs": [
        {
          "internalType": "uint256",
          "name": "",
          "type": "uint256"
        }
      ],
      "name": "sessions",
      "outputs": [
        {
          "internalType": "address",
          "name": "owner",
          "type": "address"
        },
        {
          "internalType": "bool",
          "name": "approved",
          "type": "bool"
        },
        {
          "internalType": "bool",
          "name": "start",
          "type": "bool"
        },
        {
          "internalType": "bool",
          "name": "end",
          "type": "bool"
        },
        {
          "internalType": "uint256",
          "name": "candidateCount",
          "type": "uint256"
        }
      ],
      "stateMutability": "view",
      "type": "function"
    },
    {
      "inputs": [
        {
          "internalType": "uint256",
          "name": "_sessionId",
          "type": "uint256"
        }
      ],
      "name": "startSession",
      "outputs": [],
      "stateMutability": "nonpayable",
      "type": "function"
    },
    {
      "inputs": [
        {
          "internalType": "uint256",
          "name": "_sessionId",
          "type": "uint256"
        },
        {
          "internalType": "uint256",
          "name": "_candidateIndex",
          "type": "uint256"
        }
      ],
      "name": "vote",
      "outputs": [],
      "stateMutability": "nonpayable",
      "type": "function"
    }
  ],
  "bytecode": "0x608060405234801561001057600080fd5b5061100e806100206000396000f3fe608060405234801561001057600080fd5b50600436106101005760003560e01c80634129b2c91161009757806383c4b7a31161006657806383c4b7a3146101fe578063887caf5f146102895780639bf86ead146102b3578063b384abef146102c657600080fd5b80634129b2c91461019457806373cd8336146101bf57806377127612146101c85780637a10a682146101db57600080fd5b80631cbf1b02116100d35780631cbf1b021461016657806326cc55831461016e5780633c98026d146101815780633d9b80ef1461018157600080fd5b80630731e3ef146101055780630a096cd91461011a5780630eac27f41461012d578063112d26a914610153575b600080fd5b610118610113366004610dba565b6102d9565b005b610118610128366004610dba565b610407565b61014061013b366004610dd3565b6104c7565b6040519081526020015b60405180910390f35b610140610161366004610e0f565b610598565b610118610640565b61011861017c366004610dba565b6106c5565b61014061018f366004610dba565b610784565b6101a76101a2366004610dba565b6107c3565b6040516001600160a01b03909116815260200161014a565b61014060015481565b6101186101d6366004610dba565b6108ed565b6101ee6101e9366004610dba565b6109ad565b604051901515815260200161014a565b61025161020c366004610dba565b600060208190529081526040902080546001909101546001600160a01b0382169160ff600160a01b8204811692600160a81b8304821692600160b01b90049091169085565b604080516001600160a01b0390961686529315156020860152911515928401929092529015156060830152608082015260a00161014a565b61029c610297366004610dba565b6109f3565b60408051921515835290151560208301520161014a565b6101186102c1366004610dba565b610a48565b6101186102d4366004610e0f565b610b3d565b600081815260208190526040902080546001600160a01b03166103175760405162461bcd60e51b815260040161030e90610e31565b60405180910390fd5b8054600160a81b900460ff1615801561033957508054600160b01b900460ff16155b6103555760405162461bcd60e51b815260040161030e90610e5e565b33600090815260038201602052604090205460ff16156103c25760405162461bcd60e51b815260206004820152602260248201527f416c7265616479207265676973746572656420617320612063616e6469646174604482015261329760f11b606482015260840161030e565b600180546000908152600283016020908152604080832080546001600160a01b0319163390811790915583526003909401905291909120805460ff1916909117905550565b60008181526020819052604090205481906001600160a01b0316331461043f5760405162461bcd60e51b815260040161030e90610ea3565b600082815260208190526040902080546001600160a01b03166104745760405162461bcd60e51b815260040161030e90610e31565b8054600160a81b900460ff1615801561049657508054600160b01b900460ff16155b6104b25760405162461bcd60e51b815260040161030e90610e5e565b805460ff60a01b1916600160a01b1790555050565b6000828152602081905260408120548390600160a01b900460ff166104fe5760405162461bcd60e51b815260040161030e90610ef3565b6000848152602081815260408083206001600160a01b0387168452600481019092529091205460ff166105735760405162461bcd60e51b815260206004820152601a60248201527f4e6f742072656769737465726564206173206120766f7465722e000000000000604482015260640161030e565b6001600160a01b03841660009081526006909101602052604090205491505092915050565b6000828152602081905260408120548390600160a01b900460ff166105cf5760405162461bcd60e51b815260040161030e90610ef3565b600084815260208190526040902060015484106106295760405162461bcd60e51b815260206004820152601860248201527724b73b30b634b21031b0b73234b230ba329034b73232bc1760411b604482015260640161030e565b600093845260050160205250506040902054919050565b60018054600090815260208190526040812080546001600160a81b0319163360ff60a01b191617815582549092909161067883610f59565b91905055507f6c5e54a4b431f9740a3fe6060098a66514c1429d75fdc49180975faaf8552779600180546106ac9190610f74565b604080519182523360208301520160405180910390a150565b60008181526020819052604090205481906001600160a01b031633146106fd5760405162461bcd60e51b815260040161030e90610ea3565b600082815260208190526040902080546001600160a01b03166107325760405162461bcd60e51b815260040161030e90610e31565b8054600160a81b900460ff16801561075357508054600160b01b900460ff16155b61076f5760405162461bcd60e51b815260040161030e90610f8b565b805460ff60b01b1916600160b01b1790555050565b600081815260208190526040812080546001600160a01b03166107b95760405162461bcd60e51b815260040161030e90610e31565b5050600154919050565b6000818152602081905260408120548290600160a01b900460ff166107fa5760405162461bcd60e51b815260040161030e90610ef3565b60008381526020819052604090208054600160a81b900460ff16801561082857508054600160b01b900460ff165b6108745760405162461bcd60e51b815260206004820152601a60248201527f53657373696f6e20686173206e6f7420656e646564207965742e000000000000604482015260640161030e565b60008060005b83600101548110156108c85760008181526005850160205260409020548210156108b65760008181526005850160205260409020549092509050815b806108c081610f59565b91505061087a565b50506000908152600290910160205260409020546001600160a01b0316915050919050565b60008181526020819052604090205481906001600160a01b031633146109255760405162461bcd60e51b815260040161030e90610ea3565b600082815260208190526040902080546001600160a01b031661095a5760405162461bcd60e51b815260040161030e90610e31565b8054600160a81b900460ff1615801561097c57508054600160b01b900460ff16155b6109985760405162461bcd60e51b815260040161030e90610e5e565b805460ff60a81b1916600160a81b1790555050565b600081815260208190526040812080546001600160a01b03166109e25760405162461bcd60e51b815260040161030e90610e31565b54600160a01b900460ff1692915050565b600081815260208190526040812080548291906001600160a01b0316610a2b5760405162461bcd60e51b815260040161030e90610e31565b5460ff600160a81b8204811695600160b01b909204169350915050565b600081815260208190526040902080546001600160a01b0316610a7d5760405162461bcd60e51b815260040161030e90610e31565b8054600160a81b900460ff16158015610a9f57508054600160b01b900460ff16155b610abb5760405162461bcd60e51b815260040161030e90610e5e565b33600090815260048201602052604090205460ff1615610b1d5760405162461bcd60e51b815260206004820152601e60248201527f416c72656164792072656769737465726564206173206120766f7465722e0000604482015260640161030e565b336000908152600490910160205260409020805460ff1916600117905550565b6000828152602081905260409020548290600160a01b900460ff16610b745760405162461bcd60e51b815260040161030e90610ef3565b600083815260208190526040902080546001600160a01b0316610ba95760405162461bcd60e51b815260040161030e90610e31565b8054600160a81b900460ff168015610bca57508054600160b01b900460ff16155b610be65760405162461bcd60e51b815260040161030e90610f8b565b33600090815260048201602052604090205460ff16610c475760405162461bcd60e51b815260206004820152601a60248201527f4e6f742072656769737465726564206173206120766f7465722e000000000000604482015260640161030e565b33600090815260038201602052604090205460ff1615610ca95760405162461bcd60e51b815260206004820152601b60248201527f43616e6e6f7420766f746520617320612063616e6469646174652e0000000000604482015260640161030e565b6001548310610cf55760405162461bcd60e51b815260206004820152601860248201527724b73b30b634b21031b0b73234b230ba329034b73232bc1760411b604482015260640161030e565b33600090815260068201602052604090205415610d455760405162461bcd60e51b815260206004820152600e60248201526d20b63932b0b23c903b37ba32b21760911b604482015260640161030e565b60008381526005820160205260408120805491610d6183610f59565b909155505033600081815260068301602090815260409182902086905581518781529081018690527fb4cfecf70861b7b150d8337780d34fb4cbc2114b5fb1fe51a5c5fca1849f7274910160405180910390a250505050565b600060208284031215610dcc57600080fd5b5035919050565b60008060408385031215610de657600080fd5b8235915060208301356001600160a01b0381168114610e0457600080fd5b809150509250929050565b60008060408385031215610e2257600080fd5b50508035926020909101359150565b60208082526013908201527224b73b30b634b21039b2b9b9b4b7b71024a21760691b604082015260600190565b60208082526025908201527f53657373696f6e2068617320616c72656164792073746172746564206f722065604082015264373232b21760d91b606082015260800190565b60208082526030908201527f4f6e6c79207468652073657373696f6e206f776e65722063616e20616363657360408201526f39903a3434b990333ab731ba34b7b71760811b606082015260800190565b60208082526030908201527f4f6e6c7920617070726f7665642073657373696f6e732063616e20616363657360408201526f39903a3434b990333ab731ba34b7b71760811b606082015260800190565b634e487b7160e01b600052601160045260246000fd5b6000600019821415610f6d57610f6d610f43565b5060010190565b600082821015610f8657610f86610f43565b500390565b6020808252602d908201527f53657373696f6e20686173206e6f74207374617274656420796574206f72206160408201526c363932b0b23c9032b73232b21760991b60608201526080019056fea26469706673582212209cb521f7651bcc1019d4eb04b8210e2ac29f6cd3ae49c5054413b82672b29b7664736f6c63430008090033",
  "linkReferences": {},
  "deployedLinkReferences": {}
}